:100000000C9446000C9465000C9465000C946500FB
:100010000C9465000C9465000C9465000C946500CC
:100020000C9465000C9465000C9465000C946500BC
:100030000C9465000C9465000C9465000C946500AC
:100040000C9465000C9465000C9465000C9465009C
:100050000C9465000C9465000C9465000C9465008C
:100060000C9465000C9465000C9465000C9465007C
:100070000C9465000C9465000C9465000C9465006C
:100080000C9465000C9465000C94650011241FBE4F
:10009000CFEFD0E4DEBFCDBF11E0A0E0B1E0ECE7F0
:1000A000F2E000E00BBF02C007900D92AE30B10746
:1000B000D9F721E0AEE0B1E001C01D92A131B20755
:1000C000E1F70E9410010C943C010C940000CF93C6
:1000D000DF9300D01F92CDB7DEB789837B836A831D
:1000E00089818A3031F48A819B81BC018DE00E9434
:1000F000670080EC90E0FC018081882F90E08072A6
:100100009927892BB1F386EC90E02981FC012083AB
:1001100080E090E00F900F900F90DF91CF910895C5
:10012000CF93DF93CDB7DEB780910F01909110018F
:1001300082309105B1F18330910528F4009751F098
:100140000197C1F069C083309105E9F1049709F482
:1001500051C062C080910E01882339F081E090E0A7
:100160009093100180930F0157C0109210011092CC
:100170000F0152C085E290E025E5FC0120838091CB
:100180000E01882339F482E090E09093100180936F
:100190000F0142C081E090E09093100180930F0125
:1001A0003BC080910E01882339F083E090E090936A
:1001B000100180930F0130C082E090E09093100115
:1001C00080930F0129C085E290E02AEAFC01208398
:1001D00080910E01882339F484E090E0909310011F
:1001E00080930F0119C083E090E0909310018093F9
:1001F0000F0112C080910E01882339F081E090E058
:100200009093100180930F0106C084E090E09093DA
:10021000100180930F0100000000DF91CF9108953D
:10022000CF93DF93CDB7DEB781E290E0FC0110827F
:1002300080E290E02FEFFC01208384E290E02FEF3A
:10024000FC01208385E290E0FC01108210921001F5
:1002500010920F0180E290E0FC018081882F90E0F5
:100260008170992721E0892B09F020E0822F80936B
:0C0270000E010E949000EECFF894FFCF2A
:0E027C0000000002000000006700000000000B
:00000001FF
