:100000000C9446000C9465000C9465000C946500FB
:100010000C9465000C9465000C9465000C946500CC
:100020000C9465000C9465000C9465000C946500BC
:100030000C9465000C9465000C9465000C946500AC
:100040000C9465000C9465000C9465000C9465009C
:100050000C9465000C9465000C9465000C9465008C
:100060000C9465000C9465000C9465000C9465007C
:100070000C9465000C9465000C9465000C9465006C
:100080000C9465000C9465000C94650011241FBE4F
:10009000CFEFD0E4DEBFCDBF11E0A0E0B1E0E4ECF3
:1000A000F3E000E00BBF02C007900D92AE30B10745
:1000B000D9F721E0AEE0B1E001C01D92A231B20754
:1000C000E1F70E94B2010C94E0010C940000CF9380
:1000D000DF9300D01F92CDB7DEB789837B836A831D
:1000E00089818A3031F48A819B81BC018DE00E9434
:1000F000670080EC90E0FC018081882F90E08072A6
:100100009927892BB1F386EC90E02981FC012083AB
:1001100080E090E00F900F900F90DF91CF910895C5
:10012000CF93DF93CDB7DEB780910F01909110018F
:100130008230910509F470C08330910528F400974E
:1001400059F00197B9F00AC18330910509F48CC0C8
:10015000049709F4DAC002C180910E01882309F4E2
:10016000FCC01092110181E090E090931001809307
:100170000F01F3C080911101882331F485E290E0F2
:1001800021E0FC01208331C080911101813031F4E4
:1001900085E290E023E0FC01208327C080911101DB
:1001A000823031F485E290E027E0FC0120831DC01D
:1001B00080911101833031F485E290E02FE0FC0161
:1001C000208313C080911101843031F485E290E0E6
:1001D0002FE1FC01208309C080911101853029F4B1
:1001E00085E290E02FE3FC01208380910E018823BB
:1001F00061F4809111018F5F8093110182E090E0A2
:100200009093100180930F01A9C081E090E090933A
:10021000100180930F01A2C080910E01882359F034
:1002200080911101863038F481E090E090931001C4
:1002300080930F0118C080910E01882369F080918E
:100240001101863048F01092110183E090E0909304
:10025000100180930F0107C082E090E0909310019D
:1002600080930F017BC07AC080911101882331F403
:1002700085E290E02FE1FC01208330C080911101E4
:10028000813031F485E290E02FE0FC01208326C02C
:1002900080911101823031F485E290E027E0FC0189
:1002A00020831CC080911101833031F485E290E0FD
:1002B00023E0FC01208312C080911101843031F4CD
:1002C00085E290E021E0FC01208308C080911101CB
:1002D000853021F485E290E0FC01108280910E01CE
:1002E000882361F4809111018F5F8093110184E074
:1002F00090E09093100180930F0130C083E090E074
:100300009093100180930F0129C080910E018823E2
:1003100059F080911101863038F483E090E0909399
:10032000100180930F0118C080910E01882369F09D
:1003300080911101863048F01092110181E090E027
:100340009093100180930F0107C084E090E0909398
:10035000100180930F0102C001C000000000DF9176
:10036000CF910895CF93DF93CDB7DEB781E290E0D0
:10037000FC01108280E290E02FEFFC01208384E2F8
:1003800090E02FEFFC01208385E290E0FC011082D9
:100390001092100110920F011092110180E290E072
:1003A000FC018081882F90E08170992721E0892BC2
:1003B00009F020E0822F80930E010E949000EECF82
:0403C000F894FFCFDF
:0E03C4000000000200000000670000000000C2
:00000001FF
